{
	"SimpleVoting.sol": {
		"SimpleVoting": {
			"abi": [
				{
					"inputs": [],
					"name": "InvalidCandidate",
					"type": "error"
				},
				{
					"inputs": [],
					"name": "candidate1",
					"outputs": [
						{
							"internalType": "address",
							"name": "",
							"type": "address"
						}
					],
					"stateMutability": "view",
					"type": "function"
				},
				{
					"inputs": [],
					"name": "candidate2",
					"outputs": [
						{
							"internalType": "address",
							"name": "",
							"type": "address"
						}
					],
					"stateMutability": "view",
					"type": "function"
				},
				{
					"inputs": [],
					"name": "chooseWinner",
					"outputs": [],
					"stateMutability": "nonpayable",
					"type": "function"
				},
				{
					"inputs": [],
					"name": "owner",
					"outputs": [
						{
							"internalType": "address",
							"name": "",
							"type": "address"
						}
					],
					"stateMutability": "view",
					"type": "function"
				},
				{
					"inputs": [
						{
							"internalType": "address",
							"name": "candidate",
							"type": "address"
						}
					],
					"name": "vote",
					"outputs": [],
					"stateMutability": "nonpayable",
					"type": "function"
				},
				{
					"inputs": [],
					"name": "votesCandidateOne",
					"outputs": [
						{
							"internalType": "uint256",
							"name": "",
							"type": "uint256"
						}
					],
					"stateMutability": "view",
					"type": "function"
				},
				{
					"inputs": [],
					"name": "votesCandidateTwo",
					"outputs": [
						{
							"internalType": "uint256",
							"name": "",
							"type": "uint256"
						}
					],
					"stateMutability": "view",
					"type": "function"
				},
				{
					"inputs": [],
					"name": "votingEnded",
					"outputs": [
						{
							"internalType": "bool",
							"name": "",
							"type": "bool"
						}
					],
					"stateMutability": "view",
					"type": "function"
				}
			],
			"devdoc": {
				"kind": "dev",
				"methods": {},
				"version": 1
			},
			"evm": {
				"assembly": "    /* \"SimpleVoting.sol\":153:1287  contract SimpleVoting {... */\n  mstore(0x40, 0x80)\n    /* \"SimpleVoting.sol\":208:213  false */\n  0x00\n    /* \"SimpleVoting.sol\":182:213  bool public votingEnded = false */\n  0x00\n  exp(0x0100, 0x00)\n  dup2\n  sload\n  dup2\n  0xff\n  mul\n  not\n  and\n  swap1\n  dup4\n  iszero\n  iszero\n  mul\n  or\n  swap1\n  sstore\n  pop\n    /* \"SimpleVoting.sol\":248:290  0xAb8483F64d9C6d1EcF9b849Ae677dD3315835cb2 */\n  0xab8483f64d9c6d1ecf9b849ae677dd3315835cb2\n    /* \"SimpleVoting.sol\":220:290  address public candidate1 = 0xAb8483F64d9C6d1EcF9b849Ae677dD3315835cb2 */\n  0x00\n  exp(0x0100, 0x01)\n  dup2\n  sload\n  dup2\n  0xffffffffffffffffffffffffffffffffffffffff\n  mul\n  not\n  and\n  swap1\n  dup4\n  0xffffffffffffffffffffffffffffffffffffffff\n  and\n  mul\n  or\n  swap1\n  sstore\n  pop\n    /* \"SimpleVoting.sol\":325:367  0x4B20993Bc481177ec7E8f571ceCaE8A9e22C02db */\n  0x4b20993bc481177ec7e8f571cecae8a9e22c02db\n    /* \"SimpleVoting.sol\":297:367  address public candidate2 = 0x4B20993Bc481177ec7E8f571ceCaE8A9e22C02db */\n  0x01\n  exp(0x0100, 0x00)\n  dup2\n  sload\n  dup2\n  0xffffffffffffffffffffffffffffffffffffffff\n  mul\n  not\n  and\n  swap1\n  dup4\n  0xffffffffffffffffffffffffffffffffffffffff\n  and\n  mul\n  or\n  swap1\n  sstore\n  pop\n    /* \"SimpleVoting.sol\":475:517  0x5B38Da6a701c568545dCfcB03FcB875f56beddC4 */\n  0x5b38da6a701c568545dcfcb03fcb875f56beddc4\n    /* \"SimpleVoting.sol\":452:517  address public owner = 0x5B38Da6a701c568545dCfcB03FcB875f56beddC4 */\n  0x04\n  exp(0x0100, 0x00)\n  dup2\n  sload\n  dup2\n  0xffffffffffffffffffffffffffffffffffffffff\n  mul\n  not\n  and\n  swap1\n  dup4\n  0xffffffffffffffffffffffffffffffffffffffff\n  and\n  mul\n  or\n  swap1\n  sstore\n  pop\n    /* \"SimpleVoting.sol\":153:1287  contract SimpleVoting {... */\n  callvalue\n  dup1\n  iszero\n  tag_1\n  jumpi\n  revert(0x00, 0x00)\ntag_1:\n  pop\n  dataSize(sub_0)\n  dup1\n  dataOffset(sub_0)\n  0x00\n  codecopy\n  0x00\n  return\nstop\n\nsub_0: assembly {\n        /* \"SimpleVoting.sol\":153:1287  contract SimpleVoting {... */\n      mstore(0x40, 0x80)\n      callvalue\n      dup1\n      iszero\n      tag_1\n      jumpi\n      revert(0x00, 0x00)\n    tag_1:\n      pop\n      jumpi(tag_2, lt(calldatasize, 0x04))\n      shr(0xe0, calldataload(0x00))\n      dup1\n      0x8da5cb5b\n      gt\n      tag_11\n      jumpi\n      dup1\n      0x8da5cb5b\n      eq\n      tag_7\n      jumpi\n      dup1\n      0x9d5a0529\n      eq\n      tag_8\n      jumpi\n      dup1\n      0xb5e05baa\n      eq\n      tag_9\n      jumpi\n      dup1\n      0xcd38aa87\n      eq\n      tag_10\n      jumpi\n      jump(tag_2)\n    tag_11:\n      dup1\n      0x01243fce\n      eq\n      tag_3\n      jumpi\n      dup1\n      0x58ce5aea\n      eq\n      tag_4\n      jumpi\n      dup1\n      0x5b57014c\n      eq\n      tag_5\n      jumpi\n      dup1\n      0x6dd7d8ea\n      eq\n      tag_6\n      jumpi\n    tag_2:\n      revert(0x00, 0x00)\n        /* \"SimpleVoting.sol\":220:290  address public candidate1 = 0xAb8483F64d9C6d1EcF9b849Ae677dD3315835cb2 */\n    tag_3:\n      tag_12\n      tag_13\n      jump\t// in\n    tag_12:\n      mload(0x40)\n      tag_14\n      swap2\n      swap1\n      tag_15\n      jump\t// in\n    tag_14:\n      mload(0x40)\n      dup1\n      swap2\n      sub\n      swap1\n      return\n        /* \"SimpleVoting.sol\":374:406  uint256 public votesCandidateOne */\n    tag_4:\n      tag_16\n      tag_17\n      jump\t// in\n    tag_16:\n      mload(0x40)\n      tag_18\n      swap2\n      swap1\n      tag_19\n      jump\t// in\n    tag_18:\n      mload(0x40)\n      dup1\n      swap2\n      sub\n      swap1\n      return\n        /* \"SimpleVoting.sol\":297:367  address public candidate2 = 0x4B20993Bc481177ec7E8f571ceCaE8A9e22C02db */\n    tag_5:\n      tag_20\n      tag_21\n      jump\t// in\n    tag_20:\n      mload(0x40)\n      tag_22\n      swap2\n      swap1\n      tag_15\n      jump\t// in\n    tag_22:\n      mload(0x40)\n      dup1\n      swap2\n      sub\n      swap1\n      return\n        /* \"SimpleVoting.sol\":547:886  function vote(address candidate) external {... */\n    tag_6:\n      tag_23\n      0x04\n      dup1\n      calldatasize\n      sub\n      dup2\n      add\n      swap1\n      tag_24\n      swap2\n      swap1\n      tag_25\n      jump\t// in\n    tag_24:\n      tag_26\n      jump\t// in\n    tag_23:\n      stop\n        /* \"SimpleVoting.sol\":452:517  address public owner = 0x5B38Da6a701c568545dCfcB03FcB875f56beddC4 */\n    tag_7:\n      tag_27\n      tag_28\n      jump\t// in\n    tag_27:\n      mload(0x40)\n      tag_29\n      swap2\n      swap1\n      tag_15\n      jump\t// in\n    tag_29:\n      mload(0x40)\n      dup1\n      swap2\n      sub\n      swap1\n      return\n        /* \"SimpleVoting.sol\":182:213  bool public votingEnded = false */\n    tag_8:\n      tag_30\n      tag_31\n      jump\t// in\n    tag_30:\n      mload(0x40)\n      tag_32\n      swap2\n      swap1\n      tag_33\n      jump\t// in\n    tag_32:\n      mload(0x40)\n      dup1\n      swap2\n      sub\n      swap1\n      return\n        /* \"SimpleVoting.sol\":413:445  uint256 public votesCandidateTwo */\n    tag_9:\n      tag_34\n      tag_35\n      jump\t// in\n    tag_34:\n      mload(0x40)\n      tag_36\n      swap2\n      swap1\n      tag_19\n      jump\t// in\n    tag_36:\n      mload(0x40)\n      dup1\n      swap2\n      sub\n      swap1\n      return\n        /* \"SimpleVoting.sol\":894:1284  function chooseWinner() external {... */\n    tag_10:\n      tag_37\n      tag_38\n      jump\t// in\n    tag_37:\n      stop\n        /* \"SimpleVoting.sol\":220:290  address public candidate1 = 0xAb8483F64d9C6d1EcF9b849Ae677dD3315835cb2 */\n    tag_13:\n      0x00\n      0x01\n      swap1\n      sload\n      swap1\n      0x0100\n      exp\n      swap1\n      div\n      0xffffffffffffffffffffffffffffffffffffffff\n      and\n      dup2\n      jump\t// out\n        /* \"SimpleVoting.sol\":374:406  uint256 public votesCandidateOne */\n    tag_17:\n      sload(0x02)\n      dup2\n      jump\t// out\n        /* \"SimpleVoting.sol\":297:367  address public candidate2 = 0x4B20993Bc481177ec7E8f571ceCaE8A9e22C02db */\n    tag_21:\n      0x01\n      0x00\n      swap1\n      sload\n      swap1\n      0x0100\n      exp\n      swap1\n      div\n      0xffffffffffffffffffffffffffffffffffffffff\n      and\n      dup2\n      jump\t// out\n        /* \"SimpleVoting.sol\":547:886  function vote(address candidate) external {... */\n    tag_26:\n        /* \"SimpleVoting.sol\":609:620  votingEnded */\n      0x00\n      0x00\n      swap1\n      sload\n      swap1\n      0x0100\n      exp\n      swap1\n      div\n      0xff\n      and\n        /* \"SimpleVoting.sol\":608:620  !votingEnded */\n      iszero\n        /* \"SimpleVoting.sol\":600:649  require(!votingEnded, \"Voting has already ended\") */\n      tag_40\n      jumpi\n      mload(0x40)\n      0x08c379a000000000000000000000000000000000000000000000000000000000\n      dup2\n      mstore\n      0x04\n      add\n      tag_41\n      swap1\n      tag_42\n      jump\t// in\n    tag_41:\n      mload(0x40)\n      dup1\n      swap2\n      sub\n      swap1\n      revert\n    tag_40:\n        /* \"SimpleVoting.sol\":679:689  candidate1 */\n      0x00\n      0x01\n      swap1\n      sload\n      swap1\n      0x0100\n      exp\n      swap1\n      div\n      0xffffffffffffffffffffffffffffffffffffffff\n      and\n        /* \"SimpleVoting.sol\":666:689  candidate == candidate1 */\n      0xffffffffffffffffffffffffffffffffffffffff\n      and\n        /* \"SimpleVoting.sol\":666:675  candidate */\n      dup2\n        /* \"SimpleVoting.sol\":666:689  candidate == candidate1 */\n      0xffffffffffffffffffffffffffffffffffffffff\n      and\n      sub\n        /* \"SimpleVoting.sol\":662:879  if (candidate == candidate1) {... */\n      tag_43\n      jumpi\n        /* \"SimpleVoting.sol\":727:728  1 */\n      0x01\n        /* \"SimpleVoting.sol\":706:723  votesCandidateOne */\n      0x02\n      0x00\n        /* \"SimpleVoting.sol\":706:728  votesCandidateOne += 1 */\n      dup3\n      dup3\n      sload\n      tag_44\n      swap2\n      swap1\n      tag_45\n      jump\t// in\n    tag_44:\n      swap3\n      pop\n      pop\n      dup2\n      swap1\n      sstore\n      pop\n        /* \"SimpleVoting.sol\":662:879  if (candidate == candidate1) {... */\n      jump(tag_46)\n    tag_43:\n        /* \"SimpleVoting.sol\":763:773  candidate2 */\n      0x01\n      0x00\n      swap1\n      sload\n      swap1\n      0x0100\n      exp\n      swap1\n      div\n      0xffffffffffffffffffffffffffffffffffffffff\n      and\n        /* \"SimpleVoting.sol\":750:773  candidate == candidate2 */\n      0xffffffffffffffffffffffffffffffffffffffff\n      and\n        /* \"SimpleVoting.sol\":750:759  candidate */\n      dup2\n        /* \"SimpleVoting.sol\":750:773  candidate == candidate2 */\n      0xffffffffffffffffffffffffffffffffffffffff\n      and\n      sub\n        /* \"SimpleVoting.sol\":746:879  if (candidate == candidate2) {... */\n      tag_47\n      jumpi\n        /* \"SimpleVoting.sol\":790:807  votesCandidateTwo */\n      0x03\n      0x00\n        /* \"SimpleVoting.sol\":790:809  votesCandidateTwo++ */\n      dup2\n      sload\n      dup1\n      swap3\n      swap2\n      swap1\n      tag_48\n      swap1\n      tag_49\n      jump\t// in\n    tag_48:\n      swap2\n      swap1\n      pop\n      sstore\n      pop\n        /* \"SimpleVoting.sol\":746:879  if (candidate == candidate2) {... */\n      jump(tag_50)\n    tag_47:\n        /* \"SimpleVoting.sol\":849:867  InvalidCandidate() */\n      mload(0x40)\n      0xe66ea08f00000000000000000000000000000000000000000000000000000000\n      dup2\n      mstore\n      0x04\n      add\n      mload(0x40)\n      dup1\n      swap2\n      sub\n      swap1\n      revert\n        /* \"SimpleVoting.sol\":746:879  if (candidate == candidate2) {... */\n    tag_50:\n        /* \"SimpleVoting.sol\":662:879  if (candidate == candidate1) {... */\n    tag_46:\n        /* \"SimpleVoting.sol\":547:886  function vote(address candidate) external {... */\n      pop\n      jump\t// out\n        /* \"SimpleVoting.sol\":452:517  address public owner = 0x5B38Da6a701c568545dCfcB03FcB875f56beddC4 */\n    tag_28:\n      0x04\n      0x00\n      swap1\n      sload\n      swap1\n      0x0100\n      exp\n      swap1\n      div\n      0xffffffffffffffffffffffffffffffffffffffff\n      and\n      dup2\n      jump\t// out\n        /* \"SimpleVoting.sol\":182:213  bool public votingEnded = false */\n    tag_31:\n      0x00\n      0x00\n      swap1\n      sload\n      swap1\n      0x0100\n      exp\n      swap1\n      div\n      0xff\n      and\n      dup2\n      jump\t// out\n        /* \"SimpleVoting.sol\":413:445  uint256 public votesCandidateTwo */\n    tag_35:\n      sload(0x03)\n      dup2\n      jump\t// out\n        /* \"SimpleVoting.sol\":894:1284  function chooseWinner() external {... */\n    tag_38:\n        /* \"SimpleVoting.sol\":960:965  owner */\n      0x04\n      0x00\n      swap1\n      sload\n      swap1\n      0x0100\n      exp\n      swap1\n      div\n      0xffffffffffffffffffffffffffffffffffffffff\n      and\n        /* \"SimpleVoting.sol\":946:965  msg.sender == owner */\n      0xffffffffffffffffffffffffffffffffffffffff\n      and\n        /* \"SimpleVoting.sol\":946:956  msg.sender */\n      caller\n        /* \"SimpleVoting.sol\":946:965  msg.sender == owner */\n      0xffffffffffffffffffffffffffffffffffffffff\n      and\n      eq\n        /* \"SimpleVoting.sol\":938:979  require(msg.sender == owner, \"Not owner\") */\n      tag_52\n      jumpi\n      mload(0x40)\n      0x08c379a000000000000000000000000000000000000000000000000000000000\n      dup2\n      mstore\n      0x04\n      add\n      tag_53\n      swap1\n      tag_54\n      jump\t// in\n    tag_53:\n      mload(0x40)\n      dup1\n      swap2\n      sub\n      swap1\n      revert\n    tag_52:\n        /* \"SimpleVoting.sol\":1006:1010  true */\n      0x01\n        /* \"SimpleVoting.sol\":992:1003  votingEnded */\n      0x00\n      0x00\n        /* \"SimpleVoting.sol\":992:1010  votingEnded = true */\n      0x0100\n      exp\n      dup2\n      sload\n      dup2\n      0xff\n      mul\n      not\n      and\n      swap1\n      dup4\n      iszero\n      iszero\n      mul\n      or\n      swap1\n      sstore\n      pop\n        /* \"SimpleVoting.sol\":1047:1064  votesCandidateTwo */\n      sload(0x03)\n        /* \"SimpleVoting.sol\":1027:1044  votesCandidateOne */\n      sload(0x02)\n        /* \"SimpleVoting.sol\":1027:1064  votesCandidateOne > votesCandidateTwo */\n      gt\n        /* \"SimpleVoting.sol\":1023:1277  if (votesCandidateOne > votesCandidateTwo) {... */\n      iszero\n      tag_55\n      jumpi\n        /* \"SimpleVoting.sol\":1090:1100  candidate1 */\n      0x00\n      0x01\n      swap1\n      sload\n      swap1\n      0x0100\n      exp\n      swap1\n      div\n      0xffffffffffffffffffffffffffffffffffffffff\n      and\n        /* \"SimpleVoting.sol\":1081:1087  winner */\n      0x05\n      0x00\n        /* \"SimpleVoting.sol\":1081:1100  winner = candidate1 */\n      0x0100\n      exp\n      dup2\n      sload\n      dup2\n      0xffffffffffffffffffffffffffffffffffffffff\n      mul\n      not\n      and\n      swap1\n      dup4\n      0xffffffffffffffffffffffffffffffffffffffff\n      and\n      mul\n      or\n      swap1\n      sstore\n      pop\n        /* \"SimpleVoting.sol\":1023:1277  if (votesCandidateOne > votesCandidateTwo) {... */\n      jump(tag_56)\n    tag_55:\n        /* \"SimpleVoting.sol\":1141:1158  votesCandidateOne */\n      sload(0x02)\n        /* \"SimpleVoting.sol\":1121:1138  votesCandidateTwo */\n      sload(0x03)\n        /* \"SimpleVoting.sol\":1121:1158  votesCandidateTwo > votesCandidateOne */\n      gt\n        /* \"SimpleVoting.sol\":1118:1277  if(votesCandidateTwo > votesCandidateOne)... */\n      iszero\n      tag_57\n      jumpi\n        /* \"SimpleVoting.sol\":1193:1203  candidate2 */\n      0x01\n      0x00\n      swap1\n      sload\n      swap1\n      0x0100\n      exp\n      swap1\n      div\n      0xffffffffffffffffffffffffffffffffffffffff\n      and\n        /* \"SimpleVoting.sol\":1184:1190  winner */\n      0x05\n      0x00\n        /* \"SimpleVoting.sol\":1184:1203  winner = candidate2 */\n      0x0100\n      exp\n      dup2\n      sload\n      dup2\n      0xffffffffffffffffffffffffffffffffffffffff\n      mul\n      not\n      and\n      swap1\n      dup4\n      0xffffffffffffffffffffffffffffffffffffffff\n      and\n      mul\n      or\n      swap1\n      sstore\n      pop\n        /* \"SimpleVoting.sol\":1118:1277  if(votesCandidateTwo > votesCandidateOne)... */\n      jump(tag_58)\n    tag_57:\n        /* \"SimpleVoting.sol\":1236:1265  revert(\"More voting needed.\") */\n      mload(0x40)\n      0x08c379a000000000000000000000000000000000000000000000000000000000\n      dup2\n      mstore\n      0x04\n      add\n      tag_59\n      swap1\n      tag_60\n      jump\t// in\n    tag_59:\n      mload(0x40)\n      dup1\n      swap2\n      sub\n      swap1\n      revert\n        /* \"SimpleVoting.sol\":1118:1277  if(votesCandidateTwo > votesCandidateOne)... */\n    tag_58:\n        /* \"SimpleVoting.sol\":1023:1277  if (votesCandidateOne > votesCandidateTwo) {... */\n    tag_56:\n        /* \"SimpleVoting.sol\":894:1284  function chooseWinner() external {... */\n      jump\t// out\n        /* \"#utility.yul\":7:133   */\n    tag_61:\n        /* \"#utility.yul\":44:51   */\n      0x00\n        /* \"#utility.yul\":84:126   */\n      0xffffffffffffffffffffffffffffffffffffffff\n        /* \"#utility.yul\":77:82   */\n      dup3\n        /* \"#utility.yul\":73:127   */\n      and\n        /* \"#utility.yul\":62:127   */\n      swap1\n      pop\n        /* \"#utility.yul\":7:133   */\n      swap2\n      swap1\n      pop\n      jump\t// out\n        /* \"#utility.yul\":139:235   */\n    tag_62:\n        /* \"#utility.yul\":176:183   */\n      0x00\n        /* \"#utility.yul\":205:229   */\n      tag_84\n        /* \"#utility.yul\":223:228   */\n      dup3\n        /* \"#utility.yul\":205:229   */\n      tag_61\n      jump\t// in\n    tag_84:\n        /* \"#utility.yul\":194:229   */\n      swap1\n      pop\n        /* \"#utility.yul\":139:235   */\n      swap2\n      swap1\n      pop\n      jump\t// out\n        /* \"#utility.yul\":241:359   */\n    tag_63:\n        /* \"#utility.yul\":328:352   */\n      tag_86\n        /* \"#utility.yul\":346:351   */\n      dup2\n        /* \"#utility.yul\":328:352   */\n      tag_62\n      jump\t// in\n    tag_86:\n        /* \"#utility.yul\":323:326   */\n      dup3\n        /* \"#utility.yul\":316:353   */\n      mstore\n        /* \"#utility.yul\":241:359   */\n      pop\n      pop\n      jump\t// out\n        /* \"#utility.yul\":365:587   */\n    tag_15:\n        /* \"#utility.yul\":458:462   */\n      0x00\n        /* \"#utility.yul\":496:498   */\n      0x20\n        /* \"#utility.yul\":485:494   */\n      dup3\n        /* \"#utility.yul\":481:499   */\n      add\n        /* \"#utility.yul\":473:499   */\n      swap1\n      pop\n        /* \"#utility.yul\":509:580   */\n      tag_88\n        /* \"#utility.yul\":577:578   */\n      0x00\n        /* \"#utility.yul\":566:575   */\n      dup4\n        /* \"#utility.yul\":562:579   */\n      add\n        /* \"#utility.yul\":553:559   */\n      dup5\n        /* \"#utility.yul\":509:580   */\n      tag_63\n      jump\t// in\n    tag_88:\n        /* \"#utility.yul\":365:587   */\n      swap3\n      swap2\n      pop\n      pop\n      jump\t// out\n        /* \"#utility.yul\":593:670   */\n    tag_64:\n        /* \"#utility.yul\":630:637   */\n      0x00\n        /* \"#utility.yul\":659:664   */\n      dup2\n        /* \"#utility.yul\":648:664   */\n      swap1\n      pop\n        /* \"#utility.yul\":593:670   */\n      swap2\n      swap1\n      pop\n      jump\t// out\n        /* \"#utility.yul\":676:794   */\n    tag_65:\n        /* \"#utility.yul\":763:787   */\n      tag_91\n        /* \"#utility.yul\":781:786   */\n      dup2\n        /* \"#utility.yul\":763:787   */\n      tag_64\n      jump\t// in\n    tag_91:\n        /* \"#utility.yul\":758:761   */\n      dup3\n        /* \"#utility.yul\":751:788   */\n      mstore\n        /* \"#utility.yul\":676:794   */\n      pop\n      pop\n      jump\t// out\n        /* \"#utility.yul\":800:1022   */\n    tag_19:\n        /* \"#utility.yul\":893:897   */\n      0x00\n        /* \"#utility.yul\":931:933   */\n      0x20\n        /* \"#utility.yul\":920:929   */\n      dup3\n        /* \"#utility.yul\":916:934   */\n      add\n        /* \"#utility.yul\":908:934   */\n      swap1\n      pop\n        /* \"#utility.yul\":944:1015   */\n      tag_93\n        /* \"#utility.yul\":1012:1013   */\n      0x00\n        /* \"#utility.yul\":1001:1010   */\n      dup4\n        /* \"#utility.yul\":997:1014   */\n      add\n        /* \"#utility.yul\":988:994   */\n      dup5\n        /* \"#utility.yul\":944:1015   */\n      tag_65\n      jump\t// in\n    tag_93:\n        /* \"#utility.yul\":800:1022   */\n      swap3\n      swap2\n      pop\n      pop\n      jump\t// out\n        /* \"#utility.yul\":1109:1226   */\n    tag_67:\n        /* \"#utility.yul\":1218:1219   */\n      0x00\n        /* \"#utility.yul\":1215:1216   */\n      0x00\n        /* \"#utility.yul\":1208:1220   */\n      revert\n        /* \"#utility.yul\":1355:1477   */\n    tag_69:\n        /* \"#utility.yul\":1428:1452   */\n      tag_98\n        /* \"#utility.yul\":1446:1451   */\n      dup2\n        /* \"#utility.yul\":1428:1452   */\n      tag_62\n      jump\t// in\n    tag_98:\n        /* \"#utility.yul\":1421:1426   */\n      dup2\n        /* \"#utility.yul\":1418:1453   */\n      eq\n        /* \"#utility.yul\":1408:1471   */\n      tag_99\n      jumpi\n        /* \"#utility.yul\":1467:1468   */\n      0x00\n        /* \"#utility.yul\":1464:1465   */\n      0x00\n        /* \"#utility.yul\":1457:1469   */\n      revert\n        /* \"#utility.yul\":1408:1471   */\n    tag_99:\n        /* \"#utility.yul\":1355:1477   */\n      pop\n      jump\t// out\n        /* \"#utility.yul\":1483:1622   */\n    tag_70:\n        /* \"#utility.yul\":1529:1534   */\n      0x00\n        /* \"#utility.yul\":1567:1573   */\n      dup2\n        /* \"#utility.yul\":1554:1574   */\n      calldataload\n        /* \"#utility.yul\":1545:1574   */\n      swap1\n      pop\n        /* \"#utility.yul\":1583:1616   */\n      tag_101\n        /* \"#utility.yul\":1610:1615   */\n      dup2\n        /* \"#utility.yul\":1583:1616   */\n      tag_69\n      jump\t// in\n    tag_101:\n        /* \"#utility.yul\":1483:1622   */\n      swap3\n      swap2\n      pop\n      pop\n      jump\t// out\n        /* \"#utility.yul\":1628:1957   */\n    tag_25:\n        /* \"#utility.yul\":1687:1693   */\n      0x00\n        /* \"#utility.yul\":1736:1738   */\n      0x20\n        /* \"#utility.yul\":1724:1733   */\n      dup3\n        /* \"#utility.yul\":1715:1722   */\n      dup5\n        /* \"#utility.yul\":1711:1734   */\n      sub\n        /* \"#utility.yul\":1707:1739   */\n      slt\n        /* \"#utility.yul\":1704:1823   */\n      iszero\n      tag_103\n      jumpi\n        /* \"#utility.yul\":1742:1821   */\n      tag_104\n      tag_67\n      jump\t// in\n    tag_104:\n        /* \"#utility.yul\":1704:1823   */\n    tag_103:\n        /* \"#utility.yul\":1862:1863   */\n      0x00\n        /* \"#utility.yul\":1887:1940   */\n      tag_105\n        /* \"#utility.yul\":1932:1939   */\n      dup5\n        /* \"#utility.yul\":1923:1929   */\n      dup3\n        /* \"#utility.yul\":1912:1921   */\n      dup6\n        /* \"#utility.yul\":1908:1930   */\n      add\n        /* \"#utility.yul\":1887:1940   */\n      tag_70\n      jump\t// in\n    tag_105:\n        /* \"#utility.yul\":1877:1940   */\n      swap2\n      pop\n        /* \"#utility.yul\":1833:1950   */\n      pop\n        /* \"#utility.yul\":1628:1957   */\n      swap3\n      swap2\n      pop\n      pop\n      jump\t// out\n        /* \"#utility.yul\":1963:2053   */\n    tag_71:\n        /* \"#utility.yul\":1997:2004   */\n      0x00\n        /* \"#utility.yul\":2040:2045   */\n      dup2\n        /* \"#utility.yul\":2033:2046   */\n      iszero\n        /* \"#utility.yul\":2026:2047   */\n      iszero\n        /* \"#utility.yul\":2015:2047   */\n      swap1\n      pop\n        /* \"#utility.yul\":1963:2053   */\n      swap2\n      swap1\n      pop\n      jump\t// out\n        /* \"#utility.yul\":2059:2168   */\n    tag_72:\n        /* \"#utility.yul\":2140:2161   */\n      tag_108\n        /* \"#utility.yul\":2155:2160   */\n      dup2\n        /* \"#utility.yul\":2140:2161   */\n      tag_71\n      jump\t// in\n    tag_108:\n        /* \"#utility.yul\":2135:2138   */\n      dup3\n        /* \"#utility.yul\":2128:2162   */\n      mstore\n        /* \"#utility.yul\":2059:2168   */\n      pop\n      pop\n      jump\t// out\n        /* \"#utility.yul\":2174:2384   */\n    tag_33:\n        /* \"#utility.yul\":2261:2265   */\n      0x00\n        /* \"#utility.yul\":2299:2301   */\n      0x20\n        /* \"#utility.yul\":2288:2297   */\n      dup3\n        /* \"#utility.yul\":2284:2302   */\n      add\n        /* \"#utility.yul\":2276:2302   */\n      swap1\n      pop\n        /* \"#utility.yul\":2312:2377   */\n      tag_110\n        /* \"#utility.yul\":2374:2375   */\n      0x00\n        /* \"#utility.yul\":2363:2372   */\n      dup4\n        /* \"#utility.yul\":2359:2376   */\n      add\n        /* \"#utility.yul\":2350:2356   */\n      dup5\n        /* \"#utility.yul\":2312:2377   */\n      tag_72\n      jump\t// in\n    tag_110:\n        /* \"#utility.yul\":2174:2384   */\n      swap3\n      swap2\n      pop\n      pop\n      jump\t// out\n        /* \"#utility.yul\":2390:2559   */\n    tag_73:\n        /* \"#utility.yul\":2474:2485   */\n      0x00\n        /* \"#utility.yul\":2508:2514   */\n      dup3\n        /* \"#utility.yul\":2503:2506   */\n      dup3\n        /* \"#utility.yul\":2496:2515   */\n      mstore\n        /* \"#utility.yul\":2548:2552   */\n      0x20\n        /* \"#utility.yul\":2543:2546   */\n      dup3\n        /* \"#utility.yul\":2539:2553   */\n      add\n        /* \"#utility.yul\":2524:2553   */\n      swap1\n      pop\n        /* \"#utility.yul\":2390:2559   */\n      swap3\n      swap2\n      pop\n      pop\n      jump\t// out\n        /* \"#utility.yul\":2565:2739   */\n    tag_74:\n        /* \"#utility.yul\":2705:2731   */\n      0x566f74696e672068617320616c726561647920656e6465640000000000000000\n        /* \"#utility.yul\":2701:2702   */\n      0x00\n        /* \"#utility.yul\":2693:2699   */\n      dup3\n        /* \"#utility.yul\":2689:2703   */\n      add\n        /* \"#utility.yul\":2682:2732   */\n      mstore\n        /* \"#utility.yul\":2565:2739   */\n      pop\n      jump\t// out\n        /* \"#utility.yul\":2745:3111   */\n    tag_75:\n        /* \"#utility.yul\":2887:2890   */\n      0x00\n        /* \"#utility.yul\":2908:2975   */\n      tag_114\n        /* \"#utility.yul\":2972:2974   */\n      0x18\n        /* \"#utility.yul\":2967:2970   */\n      dup4\n        /* \"#utility.yul\":2908:2975   */\n      tag_73\n      jump\t// in\n    tag_114:\n        /* \"#utility.yul\":2901:2975   */\n      swap2\n      pop\n        /* \"#utility.yul\":2984:3077   */\n      tag_115\n        /* \"#utility.yul\":3073:3076   */\n      dup3\n        /* \"#utility.yul\":2984:3077   */\n      tag_74\n      jump\t// in\n    tag_115:\n        /* \"#utility.yul\":3102:3104   */\n      0x20\n        /* \"#utility.yul\":3097:3100   */\n      dup3\n        /* \"#utility.yul\":3093:3105   */\n      add\n        /* \"#utility.yul\":3086:3105   */\n      swap1\n      pop\n        /* \"#utility.yul\":2745:3111   */\n      swap2\n      swap1\n      pop\n      jump\t// out\n        /* \"#utility.yul\":3117:3536   */\n    tag_42:\n        /* \"#utility.yul\":3283:3287   */\n      0x00\n        /* \"#utility.yul\":3321:3323   */\n      0x20\n        /* \"#utility.yul\":3310:3319   */\n      dup3\n        /* \"#utility.yul\":3306:3324   */\n      add\n        /* \"#utility.yul\":3298:3324   */\n      swap1\n      pop\n        /* \"#utility.yul\":3370:3379   */\n      dup2\n        /* \"#utility.yul\":3364:3368   */\n      dup2\n        /* \"#utility.yul\":3360:3380   */\n      sub\n        /* \"#utility.yul\":3356:3357   */\n      0x00\n        /* \"#utility.yul\":3345:3354   */\n      dup4\n        /* \"#utility.yul\":3341:3358   */\n      add\n        /* \"#utility.yul\":3334:3381   */\n      mstore\n        /* \"#utility.yul\":3398:3529   */\n      tag_117\n        /* \"#utility.yul\":3524:3528   */\n      dup2\n        /* \"#utility.yul\":3398:3529   */\n      tag_75\n      jump\t// in\n    tag_117:\n        /* \"#utility.yul\":3390:3529   */\n      swap1\n      pop\n        /* \"#utility.yul\":3117:3536   */\n      swap2\n      swap1\n      pop\n      jump\t// out\n        /* \"#utility.yul\":3542:3722   */\n    tag_76:\n        /* \"#utility.yul\":3590:3667   */\n      0x4e487b7100000000000000000000000000000000000000000000000000000000\n        /* \"#utility.yul\":3587:3588   */\n      0x00\n        /* \"#utility.yul\":3580:3668   */\n      mstore\n        /* \"#utility.yul\":3687:3691   */\n      0x11\n        /* \"#utility.yul\":3684:3685   */\n      0x04\n        /* \"#utility.yul\":3677:3692   */\n      mstore\n        /* \"#utility.yul\":3711:3715   */\n      0x24\n        /* \"#utility.yul\":3708:3709   */\n      0x00\n        /* \"#utility.yul\":3701:3716   */\n      revert\n        /* \"#utility.yul\":3728:3919   */\n    tag_45:\n        /* \"#utility.yul\":3768:3771   */\n      0x00\n        /* \"#utility.yul\":3787:3807   */\n      tag_120\n        /* \"#utility.yul\":3805:3806   */\n      dup3\n        /* \"#utility.yul\":3787:3807   */\n      tag_64\n      jump\t// in\n    tag_120:\n        /* \"#utility.yul\":3782:3807   */\n      swap2\n      pop\n        /* \"#utility.yul\":3821:3841   */\n      tag_121\n        /* \"#utility.yul\":3839:3840   */\n      dup4\n        /* \"#utility.yul\":3821:3841   */\n      tag_64\n      jump\t// in\n    tag_121:\n        /* \"#utility.yul\":3816:3841   */\n      swap3\n      pop\n        /* \"#utility.yul\":3864:3865   */\n      dup3\n        /* \"#utility.yul\":3861:3862   */\n      dup3\n        /* \"#utility.yul\":3857:3866   */\n      add\n        /* \"#utility.yul\":3850:3866   */\n      swap1\n      pop\n        /* \"#utility.yul\":3885:3888   */\n      dup1\n        /* \"#utility.yul\":3882:3883   */\n      dup3\n        /* \"#utility.yul\":3879:3889   */\n      gt\n        /* \"#utility.yul\":3876:3912   */\n      iszero\n      tag_122\n      jumpi\n        /* \"#utility.yul\":3892:3910   */\n      tag_123\n      tag_76\n      jump\t// in\n    tag_123:\n        /* \"#utility.yul\":3876:3912   */\n    tag_122:\n        /* \"#utility.yul\":3728:3919   */\n      swap3\n      swap2\n      pop\n      pop\n      jump\t// out\n        /* \"#utility.yul\":3925:4158   */\n    tag_49:\n        /* \"#utility.yul\":3964:3967   */\n      0x00\n        /* \"#utility.yul\":3987:4011   */\n      tag_125\n        /* \"#utility.yul\":4005:4010   */\n      dup3\n        /* \"#utility.yul\":3987:4011   */\n      tag_64\n      jump\t// in\n    tag_125:\n        /* \"#utility.yul\":3978:4011   */\n      swap2\n      pop\n        /* \"#utility.yul\":4033:4099   */\n      0xffffffffffffffffffffffffffffffffffffffffffffffffffffffffffffffff\n        /* \"#utility.yul\":4026:4031   */\n      dup3\n        /* \"#utility.yul\":4023:4100   */\n      sub\n        /* \"#utility.yul\":4020:4123   */\n      tag_126\n      jumpi\n        /* \"#utility.yul\":4103:4121   */\n      tag_127\n      tag_76\n      jump\t// in\n    tag_127:\n        /* \"#utility.yul\":4020:4123   */\n    tag_126:\n        /* \"#utility.yul\":4150:4151   */\n      0x01\n        /* \"#utility.yul\":4143:4148   */\n      dup3\n        /* \"#utility.yul\":4139:4152   */\n      add\n        /* \"#utility.yul\":4132:4152   */\n      swap1\n      pop\n        /* \"#utility.yul\":3925:4158   */\n      swap2\n      swap1\n      pop\n      jump\t// out\n        /* \"#utility.yul\":4164:4323   */\n    tag_77:\n        /* \"#utility.yul\":4304:4315   */\n      0x4e6f74206f776e65720000000000000000000000000000000000000000000000\n        /* \"#utility.yul\":4300:4301   */\n      0x00\n        /* \"#utility.yul\":4292:4298   */\n      dup3\n        /* \"#utility.yul\":4288:4302   */\n      add\n        /* \"#utility.yul\":4281:4316   */\n      mstore\n        /* \"#utility.yul\":4164:4323   */\n      pop\n      jump\t// out\n        /* \"#utility.yul\":4329:4694   */\n    tag_78:\n        /* \"#utility.yul\":4471:4474   */\n      0x00\n        /* \"#utility.yul\":4492:4558   */\n      tag_130\n        /* \"#utility.yul\":4556:4557   */\n      0x09\n        /* \"#utility.yul\":4551:4554   */\n      dup4\n        /* \"#utility.yul\":4492:4558   */\n      tag_73\n      jump\t// in\n    tag_130:\n        /* \"#utility.yul\":4485:4558   */\n      swap2\n      pop\n        /* \"#utility.yul\":4567:4660   */\n      tag_131\n        /* \"#utility.yul\":4656:4659   */\n      dup3\n        /* \"#utility.yul\":4567:4660   */\n      tag_77\n      jump\t// in\n    tag_131:\n        /* \"#utility.yul\":4685:4687   */\n      0x20\n        /* \"#utility.yul\":4680:4683   */\n      dup3\n        /* \"#utility.yul\":4676:4688   */\n      add\n        /* \"#utility.yul\":4669:4688   */\n      swap1\n      pop\n        /* \"#utility.yul\":4329:4694   */\n      swap2\n      swap1\n      pop\n      jump\t// out\n        /* \"#utility.yul\":4700:5119   */\n    tag_54:\n        /* \"#utility.yul\":4866:4870   */\n      0x00\n        /* \"#utility.yul\":4904:4906   */\n      0x20\n        /* \"#utility.yul\":4893:4902   */\n      dup3\n        /* \"#utility.yul\":4889:4907   */\n      add\n        /* \"#utility.yul\":4881:4907   */\n      swap1\n      pop\n        /* \"#utility.yul\":4953:4962   */\n      dup2\n        /* \"#utility.yul\":4947:4951   */\n      dup2\n        /* \"#utility.yul\":4943:4963   */\n      sub\n        /* \"#utility.yul\":4939:4940   */\n      0x00\n        /* \"#utility.yul\":4928:4937   */\n      dup4\n        /* \"#utility.yul\":4924:4941   */\n      add\n        /* \"#utility.yul\":4917:4964   */\n      mstore\n        /* \"#utility.yul\":4981:5112   */\n      tag_133\n        /* \"#utility.yul\":5107:5111   */\n      dup2\n        /* \"#utility.yul\":4981:5112   */\n      tag_78\n      jump\t// in\n    tag_133:\n        /* \"#utility.yul\":4973:5112   */\n      swap1\n      pop\n        /* \"#utility.yul\":4700:5119   */\n      swap2\n      swap1\n      pop\n      jump\t// out\n        /* \"#utility.yul\":5125:5294   */\n    tag_79:\n        /* \"#utility.yul\":5265:5286   */\n      0x4d6f726520766f74696e67206e65656465642e00000000000000000000000000\n        /* \"#utility.yul\":5261:5262   */\n      0x00\n        /* \"#utility.yul\":5253:5259   */\n      dup3\n        /* \"#utility.yul\":5249:5263   */\n      add\n        /* \"#utility.yul\":5242:5287   */\n      mstore\n        /* \"#utility.yul\":5125:5294   */\n      pop\n      jump\t// out\n        /* \"#utility.yul\":5300:5666   */\n    tag_80:\n        /* \"#utility.yul\":5442:5445   */\n      0x00\n        /* \"#utility.yul\":5463:5530   */\n      tag_136\n        /* \"#utility.yul\":5527:5529   */\n      0x13\n        /* \"#utility.yul\":5522:5525   */\n      dup4\n        /* \"#utility.yul\":5463:5530   */\n      tag_73\n      jump\t// in\n    tag_136:\n        /* \"#utility.yul\":5456:5530   */\n      swap2\n      pop\n        /* \"#utility.yul\":5539:5632   */\n      tag_137\n        /* \"#utility.yul\":5628:5631   */\n      dup3\n        /* \"#utility.yul\":5539:5632   */\n      tag_79\n      jump\t// in\n    tag_137:\n        /* \"#utility.yul\":5657:5659   */\n      0x20\n        /* \"#utility.yul\":5652:5655   */\n      dup3\n        /* \"#utility.yul\":5648:5660   */\n      add\n        /* \"#utility.yul\":5641:5660   */\n      swap1\n      pop\n        /* \"#utility.yul\":5300:5666   */\n      swap2\n      swap1\n      pop\n      jump\t// out\n        /* \"#utility.yul\":5672:6091   */\n    tag_60:\n        /* \"#utility.yul\":5838:5842   */\n      0x00\n        /* \"#utility.yul\":5876:5878   */\n      0x20\n        /* \"#utility.yul\":5865:5874   */\n      dup3\n        /* \"#utility.yul\":5861:5879   */\n      add\n        /* \"#utility.yul\":5853:5879   */\n      swap1\n      pop\n        /* \"#utility.yul\":5925:5934   */\n      dup2\n        /* \"#utility.yul\":5919:5923   */\n      dup2\n        /* \"#utility.yul\":5915:5935   */\n      sub\n        /* \"#utility.yul\":5911:5912   */\n      0x00\n        /* \"#utility.yul\":5900:5909   */\n      dup4\n        /* \"#utility.yul\":5896:5913   */\n      add\n        /* \"#utility.yul\":5889:5936   */\n      mstore\n        /* \"#utility.yul\":5953:6084   */\n      tag_139\n        /* \"#utility.yul\":6079:6083   */\n      dup2\n        /* \"#utility.yul\":5953:6084   */\n      tag_80\n      jump\t// in\n    tag_139:\n        /* \"#utility.yul\":5945:6084   */\n      swap1\n      pop\n        /* \"#utility.yul\":5672:6091   */\n      swap2\n      swap1\n      pop\n      jump\t// out\n\n    auxdata: 0xa2646970667358221220df52264c4c77d0e86d310850dfdabbe804b5e277f0204fdebc6bfd16b1687ff964736f6c634300081c0033\n}\n",
				"bytecode": {
					"linkReferences": {},
					"object": "60806040525f5f5f6101000a81548160ff02191690831515021790555073ab8483f64d9c6d1ecf9b849ae677dd3315835cb25f60016101000a81548173ffffffffffffffffffffffffffffffffffffffff021916908373ffffffffffffffffffffffffffffffffffffffff160217905550734b20993bc481177ec7e8f571cecae8a9e22c02db60015f6101000a81548173ffffffffffffffffffffffffffffffffffffffff021916908373ffffffffffffffffffffffffffffffffffffffff160217905550735b38da6a701c568545dcfcb03fcb875f56beddc460045f6101000a81548173ffffffffffffffffffffffffffffffffffffffff021916908373ffffffffffffffffffffffffffffffffffffffff160217905550348015610123575f5ffd5b5061085a806101315f395ff3fe608060405234801561000f575f5ffd5b5060043610610086575f3560e01c80638da5cb5b116100595780638da5cb5b146101005780639d5a05291461011e578063b5e05baa1461013c578063cd38aa871461015a57610086565b806301243fce1461008a57806358ce5aea146100a85780635b57014c146100c65780636dd7d8ea146100e4575b5f5ffd5b610092610164565b60405161009f919061055f565b60405180910390f35b6100b0610189565b6040516100bd9190610590565b60405180910390f35b6100ce61018f565b6040516100db919061055f565b60405180910390f35b6100fe60048036038101906100f991906105d7565b6101b4565b005b61010861031a565b604051610115919061055f565b60405180910390f35b61012661033f565b604051610133919061061c565b60405180910390f35b610144610350565b6040516101519190610590565b60405180910390f35b610162610356565b005b5f60019054906101000a900473ffffffffffffffffffffffffffffffffffffffff1681565b60025481565b60015f9054906101000a900473ffffffffffffffffffffffffffffffffffffffff1681565b5f5f9054906101000a900460ff1615610202576040517f08c379a00000000000000000000000000000000000000000000000000000000081526004016101f99061068f565b60405180910390fd5b5f60019054906101000a900473ffffffffffffffffffffffffffffffffffffffff1673ffffffffffffffffffffffffffffffffffffffff168173ffffffffffffffffffffffffffffffffffffffff160361027457600160025f82825461026891906106da565b92505081905550610317565b60015f9054906101000a900473ffffffffffffffffffffffffffffffffffffffff1673ffffffffffffffffffffffffffffffffffffffff168173ffffffffffffffffffffffffffffffffffffffff16036102e45760035f8154809291906102da9061070d565b9190505550610316565b6040517fe66ea08f00000000000000000000000000000000000000000000000000000000815260040160405180910390fd5b5b50565b60045f9054906101000a900473ffffffffffffffffffffffffffffffffffffffff1681565b5f5f9054906101000a900460ff1681565b60035481565b60045f9054906101000a900473ffffffffffffffffffffffffffffffffffffffff1673ffffffffffffffffffffffffffffffffffffffff163373ffffffffffffffffffffffffffffffffffffffff16146103e5576040517f08c379a00000000000000000000000000000000000000000000000000000000081526004016103dc9061079e565b60405180910390fd5b60015f5f6101000a81548160ff0219169083151502179055506003546002541115610470575f60019054906101000a900473ffffffffffffffffffffffffffffffffffffffff1660055f6101000a81548173ffffffffffffffffffffffffffffffffffffffff021916908373ffffffffffffffffffffffffffffffffffffffff16021790555061051e565b60025460035411156104e25760015f9054906101000a900473ffffffffffffffffffffffffffffffffffffffff1660055f6101000a81548173ffffffffffffffffffffffffffffffffffffffff021916908373ffffffffffffffffffffffffffffffffffffffff16021790555061051d565b6040517f08c379a000000000000000000000000000000000000000000000000000000000815260040161051490610806565b60405180910390fd5b5b565b5f73ffffffffffffffffffffffffffffffffffffffff82169050919050565b5f61054982610520565b9050919050565b6105598161053f565b82525050565b5f6020820190506105725f830184610550565b92915050565b5f819050919050565b61058a81610578565b82525050565b5f6020820190506105a35f830184610581565b92915050565b5f5ffd5b6105b68161053f565b81146105c0575f5ffd5b50565b5f813590506105d1816105ad565b92915050565b5f602082840312156105ec576105eb6105a9565b5b5f6105f9848285016105c3565b91505092915050565b5f8115159050919050565b61061681610602565b82525050565b5f60208201905061062f5f83018461060d565b92915050565b5f82825260208201905092915050565b7f566f74696e672068617320616c726561647920656e64656400000000000000005f82015250565b5f610679601883610635565b915061068482610645565b602082019050919050565b5f6020820190508181035f8301526106a68161066d565b9050919050565b7f4e487b71000000000000000000000000000000000000000000000000000000005f52601160045260245ffd5b5f6106e482610578565b91506106ef83610578565b9250828201905080821115610707576107066106ad565b5b92915050565b5f61071782610578565b91507fffffffffffffffffffffffffffffffffffffffffffffffffffffffffffffffff8203610749576107486106ad565b5b600182019050919050565b7f4e6f74206f776e657200000000000000000000000000000000000000000000005f82015250565b5f610788600983610635565b915061079382610754565b602082019050919050565b5f6020820190508181035f8301526107b58161077c565b9050919050565b7f4d6f726520766f74696e67206e65656465642e000000000000000000000000005f82015250565b5f6107f0601383610635565b91506107fb826107bc565b602082019050919050565b5f6020820190508181035f83015261081d816107e4565b905091905056fea2646970667358221220df52264c4c77d0e86d310850dfdabbe804b5e277f0204fdebc6bfd16b1687ff964736f6c634300081c0033",
					"opcodes": "PUSH1 0x80 PUSH1 0x40 MSTORE PUSH0 PUSH0 PUSH0 PUSH2 0x100 EXP DUP2 SLOAD DUP2 PUSH1 0xFF MUL NOT AND SWAP1 DUP4 ISZERO ISZERO MUL OR SWAP1 SSTORE POP PUSH20 0xAB8483F64D9C6D1ECF9B849AE677DD3315835CB2 PUSH0 PUSH1 0x1 PUSH2 0x100 EXP DUP2 SLOAD DUP2 PUSH20 0xFFFFFFFFFFFFFFFFFFFFFFFFFFFFFFFFFFFFFFFF MUL NOT AND SWAP1 DUP4 PUSH20 0xFFFFFFFFFFFFFFFFFFFFFFFFFFFFFFFFFFFFFFFF AND MUL OR SWAP1 SSTORE POP PUSH20 0x4B20993BC481177EC7E8F571CECAE8A9E22C02DB PUSH1 0x1 PUSH0 PUSH2 0x100 EXP DUP2 SLOAD DUP2 PUSH20 0xFFFFFFFFFFFFFFFFFFFFFFFFFFFFFFFFFFFFFFFF MUL NOT AND SWAP1 DUP4 PUSH20 0xFFFFFFFFFFFFFFFFFFFFFFFFFFFFFFFFFFFFFFFF AND MUL OR SWAP1 SSTORE POP PUSH20 0x5B38DA6A701C568545DCFCB03FCB875F56BEDDC4 PUSH1 0x4 PUSH0 PUSH2 0x100 EXP DUP2 SLOAD DUP2 PUSH20 0xFFFFFFFFFFFFFFFFFFFFFFFFFFFFFFFFFFFFFFFF MUL NOT AND SWAP1 DUP4 PUSH20 0xFFFFFFFFFFFFFFFFFFFFFFFFFFFFFFFFFFFFFFFF AND MUL OR SWAP1 SSTORE POP CALLVALUE DUP1 ISZERO PUSH2 0x123 JUMPI PUSH0 PUSH0 REVERT JUMPDEST POP PUSH2 0x85A DUP1 PUSH2 0x131 PUSH0 CODECOPY PUSH0 RETURN INVALID PUSH1 0x80 PUSH1 0x40 MSTORE CALLVALUE DUP1 ISZERO PUSH2 0xF JUMPI PUSH0 PUSH0 REVERT JUMPDEST POP PUSH1 0x4 CALLDATASIZE LT PUSH2 0x86 JUMPI PUSH0 CALLDATALOAD PUSH1 0xE0 SHR DUP1 PUSH4 0x8DA5CB5B GT PUSH2 0x59 JUMPI DUP1 PUSH4 0x8DA5CB5B EQ PUSH2 0x100 JUMPI DUP1 PUSH4 0x9D5A0529 EQ PUSH2 0x11E JUMPI DUP1 PUSH4 0xB5E05BAA EQ PUSH2 0x13C JUMPI DUP1 PUSH4 0xCD38AA87 EQ PUSH2 0x15A JUMPI PUSH2 0x86 JUMP JUMPDEST DUP1 PUSH4 0x1243FCE EQ PUSH2 0x8A JUMPI DUP1 PUSH4 0x58CE5AEA EQ PUSH2 0xA8 JUMPI DUP1 PUSH4 0x5B57014C EQ PUSH2 0xC6 JUMPI DUP1 PUSH4 0x6DD7D8EA EQ PUSH2 0xE4 JUMPI JUMPDEST PUSH0 PUSH0 REVERT JUMPDEST PUSH2 0x92 PUSH2 0x164 JUMP JUMPDEST PUSH1 0x40 MLOAD PUSH2 0x9F SWAP2 SWAP1 PUSH2 0x55F JUMP JUMPDEST PUSH1 0x40 MLOAD DUP1 SWAP2 SUB SWAP1 RETURN JUMPDEST PUSH2 0xB0 PUSH2 0x189 JUMP JUMPDEST PUSH1 0x40 MLOAD PUSH2 0xBD SWAP2 SWAP1 PUSH2 0x590 JUMP JUMPDEST PUSH1 0x40 MLOAD DUP1 SWAP2 SUB SWAP1 RETURN JUMPDEST PUSH2 0xCE PUSH2 0x18F JUMP JUMPDEST PUSH1 0x40 MLOAD PUSH2 0xDB SWAP2 SWAP1 PUSH2 0x55F JUMP JUMPDEST PUSH1 0x40 MLOAD DUP1 SWAP2 SUB SWAP1 RETURN JUMPDEST PUSH2 0xFE PUSH1 0x4 DUP1 CALLDATASIZE SUB DUP2 ADD SWAP1 PUSH2 0xF9 SWAP2 SWAP1 PUSH2 0x5D7 JUMP JUMPDEST PUSH2 0x1B4 JUMP JUMPDEST STOP JUMPDEST PUSH2 0x108 PUSH2 0x31A JUMP JUMPDEST PUSH1 0x40 MLOAD PUSH2 0x115 SWAP2 SWAP1 PUSH2 0x55F JUMP JUMPDEST PUSH1 0x40 MLOAD DUP1 SWAP2 SUB SWAP1 RETURN JUMPDEST PUSH2 0x126 PUSH2 0x33F JUMP JUMPDEST PUSH1 0x40 MLOAD PUSH2 0x133 SWAP2 SWAP1 PUSH2 0x61C JUMP JUMPDEST PUSH1 0x40 MLOAD DUP1 SWAP2 SUB SWAP1 RETURN JUMPDEST PUSH2 0x144 PUSH2 0x350 JUMP JUMPDEST PUSH1 0x40 MLOAD PUSH2 0x151 SWAP2 SWAP1 PUSH2 0x590 JUMP JUMPDEST PUSH1 0x40 MLOAD DUP1 SWAP2 SUB SWAP1 RETURN JUMPDEST PUSH2 0x162 PUSH2 0x356 JUMP JUMPDEST STOP JUMPDEST PUSH0 PUSH1 0x1 SWAP1 SLOAD SWAP1 PUSH2 0x100 EXP SWAP1 DIV PUSH20 0xFFFFFFFFFFFFFFFFFFFFFFFFFFFFFFFFFFFFFFFF AND DUP2 JUMP JUMPDEST PUSH1 0x2 SLOAD DUP2 JUMP JUMPDEST PUSH1 0x1 PUSH0 SWAP1 SLOAD SWAP1 PUSH2 0x100 EXP SWAP1 DIV PUSH20 0xFFFFFFFFFFFFFFFFFFFFFFFFFFFFFFFFFFFFFFFF AND DUP2 JUMP JUMPDEST PUSH0 PUSH0 SWAP1 SLOAD SWAP1 PUSH2 0x100 EXP SWAP1 DIV PUSH1 0xFF AND ISZERO PUSH2 0x202 JUMPI PUSH1 0x40 MLOAD PUSH32 0x8C379A000000000000000000000000000000000000000000000000000000000 DUP2 MSTORE PUSH1 0x4 ADD PUSH2 0x1F9 SWAP1 PUSH2 0x68F JUMP JUMPDEST PUSH1 0x40 MLOAD DUP1 SWAP2 SUB SWAP1 REVERT JUMPDEST PUSH0 PUSH1 0x1 SWAP1 SLOAD SWAP1 PUSH2 0x100 EXP SWAP1 DIV PUSH20 0xFFFFFFFFFFFFFFFFFFFFFFFFFFFFFFFFFFFFFFFF AND PUSH20 0xFFFFFFFFFFFFFFFFFFFFFFFFFFFFFFFFFFFFFFFF AND DUP2 PUSH20 0xFFFFFFFFFFFFFFFFFFFFFFFFFFFFFFFFFFFFFFFF AND SUB PUSH2 0x274 JUMPI PUSH1 0x1 PUSH1 0x2 PUSH0 DUP3 DUP3 SLOAD PUSH2 0x268 SWAP2 SWAP1 PUSH2 0x6DA JUMP JUMPDEST SWAP3 POP POP DUP2 SWAP1 SSTORE POP PUSH2 0x317 JUMP JUMPDEST PUSH1 0x1 PUSH0 SWAP1 SLOAD SWAP1 PUSH2 0x100 EXP SWAP1 DIV PUSH20 0xFFFFFFFFFFFFFFFFFFFFFFFFFFFFFFFFFFFFFFFF AND PUSH20 0xFFFFFFFFFFFFFFFFFFFFFFFFFFFFFFFFFFFFFFFF AND DUP2 PUSH20 0xFFFFFFFFFFFFFFFFFFFFFFFFFFFFFFFFFFFFFFFF AND SUB PUSH2 0x2E4 JUMPI PUSH1 0x3 PUSH0 DUP2 SLOAD DUP1 SWAP3 SWAP2 SWAP1 PUSH2 0x2DA SWAP1 PUSH2 0x70D JUMP JUMPDEST SWAP2 SWAP1 POP SSTORE POP PUSH2 0x316 JUMP JUMPDEST PUSH1 0x40 MLOAD PUSH32 0xE66EA08F00000000000000000000000000000000000000000000000000000000 DUP2 MSTORE PUSH1 0x4 ADD PUSH1 0x40 MLOAD DUP1 SWAP2 SUB SWAP1 REVERT JUMPDEST JUMPDEST POP JUMP JUMPDEST PUSH1 0x4 PUSH0 SWAP1 SLOAD SWAP1 PUSH2 0x100 EXP SWAP1 DIV PUSH20 0xFFFFFFFFFFFFFFFFFFFFFFFFFFFFFFFFFFFFFFFF AND DUP2 JUMP JUMPDEST PUSH0 PUSH0 SWAP1 SLOAD SWAP1 PUSH2 0x100 EXP SWAP1 DIV PUSH1 0xFF AND DUP2 JUMP JUMPDEST PUSH1 0x3 SLOAD DUP2 JUMP JUMPDEST PUSH1 0x4 PUSH0 SWAP1 SLOAD SWAP1 PUSH2 0x100 EXP SWAP1 DIV PUSH20 0xFFFFFFFFFFFFFFFFFFFFFFFFFFFFFFFFFFFFFFFF AND PUSH20 0xFFFFFFFFFFFFFFFFFFFFFFFFFFFFFFFFFFFFFFFF AND CALLER PUSH20 0xFFFFFFFFFFFFFFFFFFFFFFFFFFFFFFFFFFFFFFFF AND EQ PUSH2 0x3E5 JUMPI PUSH1 0x40 MLOAD PUSH32 0x8C379A000000000000000000000000000000000000000000000000000000000 DUP2 MSTORE PUSH1 0x4 ADD PUSH2 0x3DC SWAP1 PUSH2 0x79E JUMP JUMPDEST PUSH1 0x40 MLOAD DUP1 SWAP2 SUB SWAP1 REVERT JUMPDEST PUSH1 0x1 PUSH0 PUSH0 PUSH2 0x100 EXP DUP2 SLOAD DUP2 PUSH1 0xFF MUL NOT AND SWAP1 DUP4 ISZERO ISZERO MUL OR SWAP1 SSTORE POP PUSH1 0x3 SLOAD PUSH1 0x2 SLOAD GT ISZERO PUSH2 0x470 JUMPI PUSH0 PUSH1 0x1 SWAP1 SLOAD SWAP1 PUSH2 0x100 EXP SWAP1 DIV PUSH20 0xFFFFFFFFFFFFFFFFFFFFFFFFFFFFFFFFFFFFFFFF AND PUSH1 0x5 PUSH0 PUSH2 0x100 EXP DUP2 SLOAD DUP2 PUSH20 0xFFFFFFFFFFFFFFFFFFFFFFFFFFFFFFFFFFFFFFFF MUL NOT AND SWAP1 DUP4 PUSH20 0xFFFFFFFFFFFFFFFFFFFFFFFFFFFFFFFFFFFFFFFF AND MUL OR SWAP1 SSTORE POP PUSH2 0x51E JUMP JUMPDEST PUSH1 0x2 SLOAD PUSH1 0x3 SLOAD GT ISZERO PUSH2 0x4E2 JUMPI PUSH1 0x1 PUSH0 SWAP1 SLOAD SWAP1 PUSH2 0x100 EXP SWAP1 DIV PUSH20 0xFFFFFFFFFFFFFFFFFFFFFFFFFFFFFFFFFFFFFFFF AND PUSH1 0x5 PUSH0 PUSH2 0x100 EXP DUP2 SLOAD DUP2 PUSH20 0xFFFFFFFFFFFFFFFFFFFFFFFFFFFFFFFFFFFFFFFF MUL NOT AND SWAP1 DUP4 PUSH20 0xFFFFFFFFFFFFFFFFFFFFFFFFFFFFFFFFFFFFFFFF AND MUL OR SWAP1 SSTORE POP PUSH2 0x51D JUMP JUMPDEST PUSH1 0x40 MLOAD PUSH32 0x8C379A000000000000000000000000000000000000000000000000000000000 DUP2 MSTORE PUSH1 0x4 ADD PUSH2 0x514 SWAP1 PUSH2 0x806 JUMP JUMPDEST PUSH1 0x40 MLOAD DUP1 SWAP2 SUB SWAP1 REVERT JUMPDEST JUMPDEST JUMP JUMPDEST PUSH0 PUSH20 0xFFFFFFFFFFFFFFFFFFFFFFFFFFFFFFFFFFFFFFFF DUP3 AND SWAP1 POP SWAP2 SWAP1 POP JUMP JUMPDEST PUSH0 PUSH2 0x549 DUP3 PUSH2 0x520 JUMP JUMPDEST SWAP1 POP SWAP2 SWAP1 POP JUMP JUMPDEST PUSH2 0x559 DUP2 PUSH2 0x53F JUMP JUMPDEST DUP3 MSTORE POP POP JUMP JUMPDEST PUSH0 PUSH1 0x20 DUP3 ADD SWAP1 POP PUSH2 0x572 PUSH0 DUP4 ADD DUP5 PUSH2 0x550 JUMP JUMPDEST SWAP3 SWAP2 POP POP JUMP JUMPDEST PUSH0 DUP2 SWAP1 POP SWAP2 SWAP1 POP JUMP JUMPDEST PUSH2 0x58A DUP2 PUSH2 0x578 JUMP JUMPDEST DUP3 MSTORE POP POP JUMP JUMPDEST PUSH0 PUSH1 0x20 DUP3 ADD SWAP1 POP PUSH2 0x5A3 PUSH0 DUP4 ADD DUP5 PUSH2 0x581 JUMP JUMPDEST SWAP3 SWAP2 POP POP JUMP JUMPDEST PUSH0 PUSH0 REVERT JUMPDEST PUSH2 0x5B6 DUP2 PUSH2 0x53F JUMP JUMPDEST DUP2 EQ PUSH2 0x5C0 JUMPI PUSH0 PUSH0 REVERT JUMPDEST POP JUMP JUMPDEST PUSH0 DUP2 CALLDATALOAD SWAP1 POP PUSH2 0x5D1 DUP2 PUSH2 0x5AD JUMP JUMPDEST SWAP3 SWAP2 POP POP JUMP JUMPDEST PUSH0 PUSH1 0x20 DUP3 DUP5 SUB SLT ISZERO PUSH2 0x5EC JUMPI PUSH2 0x5EB PUSH2 0x5A9 JUMP JUMPDEST JUMPDEST PUSH0 PUSH2 0x5F9 DUP5 DUP3 DUP6 ADD PUSH2 0x5C3 JUMP JUMPDEST SWAP2 POP POP SWAP3 SWAP2 POP POP JUMP JUMPDEST PUSH0 DUP2 ISZERO ISZERO SWAP1 POP SWAP2 SWAP1 POP JUMP JUMPDEST PUSH2 0x616 DUP2 PUSH2 0x602 JUMP JUMPDEST DUP3 MSTORE POP POP JUMP JUMPDEST PUSH0 PUSH1 0x20 DUP3 ADD SWAP1 POP PUSH2 0x62F PUSH0 DUP4 ADD DUP5 PUSH2 0x60D JUMP JUMPDEST SWAP3 SWAP2 POP POP JUMP JUMPDEST PUSH0 DUP3 DUP3 MSTORE PUSH1 0x20 DUP3 ADD SWAP1 POP SWAP3 SWAP2 POP POP JUMP JUMPDEST PUSH32 0x566F74696E672068617320616C726561647920656E6465640000000000000000 PUSH0 DUP3 ADD MSTORE POP JUMP JUMPDEST PUSH0 PUSH2 0x679 PUSH1 0x18 DUP4 PUSH2 0x635 JUMP JUMPDEST SWAP2 POP PUSH2 0x684 DUP3 PUSH2 0x645 JUMP JUMPDEST PUSH1 0x20 DUP3 ADD SWAP1 POP SWAP2 SWAP1 POP JUMP JUMPDEST PUSH0 PUSH1 0x20 DUP3 ADD SWAP1 POP DUP2 DUP2 SUB PUSH0 DUP4 ADD MSTORE PUSH2 0x6A6 DUP2 PUSH2 0x66D JUMP JUMPDEST SWAP1 POP SWAP2 SWAP1 POP JUMP JUMPDEST PUSH32 0x4E487B7100000000000000000000000000000000000000000000000000000000 PUSH0 MSTORE PUSH1 0x11 PUSH1 0x4 MSTORE PUSH1 0x24 PUSH0 REVERT JUMPDEST PUSH0 PUSH2 0x6E4 DUP3 PUSH2 0x578 JUMP JUMPDEST SWAP2 POP PUSH2 0x6EF DUP4 PUSH2 0x578 JUMP JUMPDEST SWAP3 POP DUP3 DUP3 ADD SWAP1 POP DUP1 DUP3 GT ISZERO PUSH2 0x707 JUMPI PUSH2 0x706 PUSH2 0x6AD JUMP JUMPDEST JUMPDEST SWAP3 SWAP2 POP POP JUMP JUMPDEST PUSH0 PUSH2 0x717 DUP3 PUSH2 0x578 JUMP JUMPDEST SWAP2 POP PUSH32 0xFFFFFFFFFFFFFFFFFFFFFFFFFFFFFFFFFFFFFFFFFFFFFFFFFFFFFFFFFFFFFFFF DUP3 SUB PUSH2 0x749 JUMPI PUSH2 0x748 PUSH2 0x6AD JUMP JUMPDEST JUMPDEST PUSH1 0x1 DUP3 ADD SWAP1 POP SWAP2 SWAP1 POP JUMP JUMPDEST PUSH32 0x4E6F74206F776E65720000000000000000000000000000000000000000000000 PUSH0 DUP3 ADD MSTORE POP JUMP JUMPDEST PUSH0 PUSH2 0x788 PUSH1 0x9 DUP4 PUSH2 0x635 JUMP JUMPDEST SWAP2 POP PUSH2 0x793 DUP3 PUSH2 0x754 JUMP JUMPDEST PUSH1 0x20 DUP3 ADD SWAP1 POP SWAP2 SWAP1 POP JUMP JUMPDEST PUSH0 PUSH1 0x20 DUP3 ADD SWAP1 POP DUP2 DUP2 SUB PUSH0 DUP4 ADD MSTORE PUSH2 0x7B5 DUP2 PUSH2 0x77C JUMP JUMPDEST SWAP1 POP SWAP2 SWAP1 POP JUMP JUMPDEST PUSH32 0x4D6F726520766F74696E67206E65656465642E00000000000000000000000000 PUSH0 DUP3 ADD MSTORE POP JUMP JUMPDEST PUSH0 PUSH2 0x7F0 PUSH1 0x13 DUP4 PUSH2 0x635 JUMP JUMPDEST SWAP2 POP PUSH2 0x7FB DUP3 PUSH2 0x7BC JUMP JUMPDEST PUSH1 0x20 DUP3 ADD SWAP1 POP SWAP2 SWAP1 POP JUMP JUMPDEST PUSH0 PUSH1 0x20 DUP3 ADD SWAP1 POP DUP2 DUP2 SUB PUSH0 DUP4 ADD MSTORE PUSH2 0x81D DUP2 PUSH2 0x7E4 JUMP JUMPDEST SWAP1 POP SWAP2 SWAP1 POP JUMP INVALID LOG2 PUSH5 0x6970667358 0x22 SLT KECCAK256 0xDF MSTORE 0x26 0x4C 0x4C PUSH24 0xD0E86D310850DFDABBE804B5E277F0204FDEBC6BFD16B168 PUSH32 0xF964736F6C634300081C00330000000000000000000000000000000000000000 "
				},
				"gasEstimates": {
					"creation": {
						"codeDepositCost": "427600",
						"executionCost": "97571",
						"totalCost": "525171"
					},
					"external": {
						"candidate1()": "2559",
						"candidate2()": "2553",
						"chooseWinner()": "61508",
						"owner()": "2508",
						"vote(address)": "infinite",
						"votesCandidateOne()": "2448",
						"votesCandidateTwo()": "2469",
						"votingEnded()": "2487"
					}
				},
				"methodIdentifiers": {
					"candidate1()": "01243fce",
					"candidate2()": "5b57014c",
					"chooseWinner()": "cd38aa87",
					"owner()": "8da5cb5b",
					"vote(address)": "6dd7d8ea",
					"votesCandidateOne()": "58ce5aea",
					"votesCandidateTwo()": "b5e05baa",
					"votingEnded()": "9d5a0529"
				}
			},
			"storageLayout": {
				"storage": [
					{
						"astId": 9,
						"contract": "SimpleVoting.sol:SimpleVoting",
						"label": "votingEnded",
						"offset": 0,
						"slot": "0",
						"type": "t_bool"
					},
					{
						"astId": 12,
						"contract": "SimpleVoting.sol:SimpleVoting",
						"label": "candidate1",
						"offset": 1,
						"slot": "0",
						"type": "t_address"
					},
					{
						"astId": 15,
						"contract": "SimpleVoting.sol:SimpleVoting",
						"label": "candidate2",
						"offset": 0,
						"slot": "1",
						"type": "t_address"
					},
					{
						"astId": 17,
						"contract": "SimpleVoting.sol:SimpleVoting",
						"label": "votesCandidateOne",
						"offset": 0,
						"slot": "2",
						"type": "t_uint256"
					},
					{
						"astId": 19,
						"contract": "SimpleVoting.sol:SimpleVoting",
						"label": "votesCandidateTwo",
						"offset": 0,
						"slot": "3",
						"type": "t_uint256"
					},
					{
						"astId": 22,
						"contract": "SimpleVoting.sol:SimpleVoting",
						"label": "owner",
						"offset": 0,
						"slot": "4",
						"type": "t_address"
					},
					{
						"astId": 24,
						"contract": "SimpleVoting.sol:SimpleVoting",
						"label": "winner",
						"offset": 0,
						"slot": "5",
						"type": "t_address"
					}
				],
				"types": {
					"t_address": {
						"encoding": "inplace",
						"label": "address",
						"numberOfBytes": "20"
					},
					"t_bool": {
						"encoding": "inplace",
						"label": "bool",
						"numberOfBytes": "1"
					},
					"t_uint256": {
						"encoding": "inplace",
						"label": "uint256",
						"numberOfBytes": "32"
					}
				}
			},
			"userdoc": {
				"kind": "user",
				"methods": {},
				"version": 1
			}
		}
	}
}